{
  "_format": "hh-sol-artifact-1",
  "contractName": "LimitX",
  "sourceName": "contracts/LimitX.sol",
  "abi": [
    {
      "inputs": [
        {
          "internalType": "address",
          "name": "_axelarGatewayAddress",
          "type": "address"
        },
        {
          "internalType": "address",
          "name": "_axelarGasReceiver",
          "type": "address"
        },
        {
          "internalType": "contract IUniswapV2Router02",
          "name": "_swapRouter",
          "type": "address"
        },
        {
          "internalType": "contract LinkTokenInterface",
          "name": "_link",
          "type": "address"
        },
        {
          "internalType": "contract KeeperRegistrarInterface",
          "name": "_registrar",
          "type": "address"
        },
        {
          "internalType": "contract AutomationRegistryInterface",
          "name": "_registry",
          "type": "address"
        },
        {
          "internalType": "address",
          "name": "_wethAddress",
          "type": "address"
        },
        {
          "internalType": "address",
          "name": "_wrappedNativeTokenAddress",
          "type": "address"
        }
      ],
      "stateMutability": "nonpayable",
      "type": "constructor"
    },
    {
      "inputs": [
        {
          "internalType": "int256",
          "name": "",
          "type": "int256"
        },
        {
          "internalType": "int256",
          "name": "",
          "type": "int256"
        }
      ],
      "name": "CONDITION_NOT_MET",
      "type": "error"
    },
    {
      "inputs": [],
      "name": "InvalidAddress",
      "type": "error"
    },
    {
      "inputs": [],
      "name": "NotApprovedByGateway",
      "type": "error"
    },
    {
      "anonymous": false,
      "inputs": [
        {
          "indexed": true,
          "internalType": "uint256",
          "name": "depositId",
          "type": "uint256"
        },
        {
          "indexed": true,
          "internalType": "string",
          "name": "actionType",
          "type": "string"
        },
        {
          "indexed": false,
          "internalType": "bool",
          "name": "isActive",
          "type": "bool"
        },
        {
          "indexed": true,
          "internalType": "address",
          "name": "depositor",
          "type": "address"
        },
        {
          "indexed": false,
          "internalType": "uint256",
          "name": "timestamp",
          "type": "uint256"
        }
      ],
      "name": "Action",
      "type": "event"
    },
    {
      "anonymous": false,
      "inputs": [
        {
          "indexed": true,
          "internalType": "address",
          "name": "previousOwner",
          "type": "address"
        },
        {
          "indexed": true,
          "internalType": "address",
          "name": "newOwner",
          "type": "address"
        }
      ],
      "name": "OwnershipTransferred",
      "type": "event"
    },
    {
      "stateMutability": "payable",
      "type": "fallback"
    },
    {
      "inputs": [],
      "name": "WETH",
      "outputs": [
        {
          "internalType": "address",
          "name": "",
          "type": "address"
        }
      ],
      "stateMutability": "view",
      "type": "function"
    },
    {
      "inputs": [],
      "name": "WNATIVE",
      "outputs": [
        {
          "internalType": "address",
          "name": "",
          "type": "address"
        }
      ],
      "stateMutability": "view",
      "type": "function"
    },
    {
      "inputs": [],
      "name": "activeDepositCounter",
      "outputs": [
        {
          "internalType": "uint256",
          "name": "",
          "type": "uint256"
        }
      ],
      "stateMutability": "view",
      "type": "function"
    },
    {
      "inputs": [],
      "name": "axelarGasService",
      "outputs": [
        {
          "internalType": "contract IAxelarGasService",
          "name": "",
          "type": "address"
        }
      ],
      "stateMutability": "view",
      "type": "function"
    },
    {
      "inputs": [
        {
          "internalType": "uint256",
          "name": "_depositId",
          "type": "uint256"
        }
      ],
      "name": "cancelAutoDeposit",
      "outputs": [
        {
          "internalType": "bool",
          "name": "",
          "type": "bool"
        }
      ],
      "stateMutability": "nonpayable",
      "type": "function"
    },
    {
      "inputs": [
        {
          "internalType": "bytes",
          "name": "checkData",
          "type": "bytes"
        }
      ],
      "name": "checkUpkeep",
      "outputs": [
        {
          "internalType": "bool",
          "name": "upkeepNeeded",
          "type": "bool"
        },
        {
          "internalType": "bytes",
          "name": "performData",
          "type": "bytes"
        }
      ],
      "stateMutability": "view",
      "type": "function"
    },
    {
      "inputs": [
        {
          "internalType": "address",
          "name": "_from",
          "type": "address"
        },
        {
          "internalType": "address",
          "name": "_to",
          "type": "address"
        },
        {
          "internalType": "uint256",
          "name": "_amount",
          "type": "uint256"
        },
        {
          "internalType": "int256",
          "name": "_executionPrice",
          "type": "int256"
        },
        {
          "internalType": "address",
          "name": "_fromToken",
          "type": "address"
        },
        {
          "internalType": "address",
          "name": "_toToken",
          "type": "address"
        },
        {
          "internalType": "uint256",
          "name": "_toChain",
          "type": "uint256"
        },
        {
          "internalType": "string",
          "name": "_destinationChain",
          "type": "string"
        },
        {
          "internalType": "uint256",
          "name": "_relayerFee",
          "type": "uint256"
        },
        {
          "internalType": "address",
          "name": "_destinationContractAddress",
          "type": "address"
        }
      ],
      "name": "createAutoDeposit",
      "outputs": [
        {
          "internalType": "bool",
          "name": "",
          "type": "bool"
        }
      ],
      "stateMutability": "payable",
      "type": "function"
    },
    {
      "inputs": [],
      "name": "crossAxelarTokenSymbol",
      "outputs": [
        {
          "internalType": "string",
          "name": "",
          "type": "string"
        }
      ],
      "stateMutability": "view",
      "type": "function"
    },
    {
      "inputs": [
        {
          "internalType": "uint256",
          "name": "_depositId",
          "type": "uint256"
        },
        {
          "internalType": "address",
          "name": "_recipient",
          "type": "address"
        },
        {
          "internalType": "string",
          "name": "_destinationChain",
          "type": "string"
        },
        {
          "internalType": "address",
          "name": "_tokenAddress",
          "type": "address"
        },
        {
          "internalType": "uint256",
          "name": "_amount",
          "type": "uint256"
        },
        {
          "internalType": "uint256",
          "name": "_slippage",
          "type": "uint256"
        },
        {
          "internalType": "uint256",
          "name": "_relayerFee",
          "type": "uint256"
        },
        {
          "internalType": "address",
          "name": "_destinationContractAddress",
          "type": "address"
        },
        {
          "internalType": "address",
          "name": "_toToken",
          "type": "address"
        }
      ],
      "name": "crossChainTransferCall",
      "outputs": [],
      "stateMutability": "payable",
      "type": "function"
    },
    {
      "inputs": [],
      "name": "crossTransferSlippage",
      "outputs": [
        {
          "internalType": "uint256",
          "name": "",
          "type": "uint256"
        }
      ],
      "stateMutability": "view",
      "type": "function"
    },
    {
      "inputs": [
        {
          "internalType": "uint256",
          "name": "",
          "type": "uint256"
        }
      ],
      "name": "depositor",
      "outputs": [
        {
          "internalType": "address",
          "name": "",
          "type": "address"
        }
      ],
      "stateMutability": "view",
      "type": "function"
    },
    {
      "inputs": [
        {
          "internalType": "uint256",
          "name": "",
          "type": "uint256"
        }
      ],
      "name": "deposits",
      "outputs": [
        {
          "internalType": "uint256",
          "name": "depositId",
          "type": "uint256"
        },
        {
          "internalType": "uint256",
          "name": "automationId",
          "type": "uint256"
        },
        {
          "internalType": "address",
          "name": "from",
          "type": "address"
        },
        {
          "internalType": "address",
          "name": "to",
          "type": "address"
        },
        {
          "internalType": "uint256",
          "name": "amount",
          "type": "uint256"
        },
        {
          "internalType": "int256",
          "name": "price",
          "type": "int256"
        },
        {
          "internalType": "address",
          "name": "fromToken",
          "type": "address"
        },
        {
          "internalType": "address",
          "name": "toToken",
          "type": "address"
        },
        {
          "internalType": "uint256",
          "name": "toChain",
          "type": "uint256"
        },
        {
          "internalType": "bool",
          "name": "isActive",
          "type": "bool"
        }
      ],
      "stateMutability": "view",
      "type": "function"
    },
    {
      "inputs": [
        {
          "internalType": "bytes32",
          "name": "commandId",
          "type": "bytes32"
        },
        {
          "internalType": "string",
          "name": "sourceChain",
          "type": "string"
        },
        {
          "internalType": "string",
          "name": "sourceAddress",
          "type": "string"
        },
        {
          "internalType": "bytes",
          "name": "payload",
          "type": "bytes"
        }
      ],
      "name": "execute",
      "outputs": [],
      "stateMutability": "nonpayable",
      "type": "function"
    },
    {
      "inputs": [
        {
          "internalType": "uint256",
          "name": "_depositId",
          "type": "uint256"
        },
        {
          "internalType": "address",
          "name": "_from",
          "type": "address"
        },
        {
          "internalType": "address",
          "name": "_to",
          "type": "address"
        },
        {
          "internalType": "uint256",
          "name": "_amount",
          "type": "uint256"
        },
        {
          "internalType": "int256",
          "name": "_price",
          "type": "int256"
        },
        {
          "internalType": "address",
          "name": "_fromToken",
          "type": "address"
        },
        {
          "internalType": "address",
          "name": "_toToken",
          "type": "address"
        },
        {
          "internalType": "uint256",
          "name": "_toChain",
          "type": "uint256"
        },
        {
          "internalType": "string",
          "name": "_destinationChain",
          "type": "string"
        },
        {
          "internalType": "uint256",
          "name": "_relayerFee",
          "type": "uint256"
        },
        {
          "internalType": "address",
          "name": "_destinationContractAddress",
          "type": "address"
        }
      ],
      "name": "executeLimitOrder",
      "outputs": [],
      "stateMutability": "payable",
      "type": "function"
    },
    {
      "inputs": [
        {
          "internalType": "uint256",
          "name": "_depositId",
          "type": "uint256"
        },
        {
          "internalType": "address",
          "name": "_from",
          "type": "address"
        },
        {
          "internalType": "address",
          "name": "_to",
          "type": "address"
        },
        {
          "internalType": "uint256[]",
          "name": "_amounts",
          "type": "uint256[]"
        },
        {
          "internalType": "address",
          "name": "_fromToken",
          "type": "address"
        },
        {
          "internalType": "address[]",
          "name": "_toTokens",
          "type": "address[]"
        },
        {
          "internalType": "uint256",
          "name": "_toChain",
          "type": "uint256"
        },
        {
          "internalType": "string",
          "name": "_destinationChain",
          "type": "string"
        },
        {
          "internalType": "uint256",
          "name": "_relayerFee",
          "type": "uint256"
        },
        {
          "internalType": "address",
          "name": "_destinationContractAddress",
          "type": "address"
        }
      ],
      "name": "executeMultipleOrderToMany",
      "outputs": [],
      "stateMutability": "payable",
      "type": "function"
    },
    {
      "inputs": [
        {
          "internalType": "uint256",
          "name": "_depositId",
          "type": "uint256"
        },
        {
          "internalType": "address",
          "name": "_from",
          "type": "address"
        },
        {
          "internalType": "address",
          "name": "_to",
          "type": "address"
        },
        {
          "internalType": "uint256[]",
          "name": "_amounts",
          "type": "uint256[]"
        },
        {
          "internalType": "address[]",
          "name": "_fromTokens",
          "type": "address[]"
        },
        {
          "internalType": "address",
          "name": "_toToken",
          "type": "address"
        },
        {
          "internalType": "uint256",
          "name": "_toChain",
          "type": "uint256"
        },
        {
          "internalType": "string",
          "name": "_destinationChain",
          "type": "string"
        },
        {
          "internalType": "uint256",
          "name": "_relayerFee",
          "type": "uint256"
        },
        {
          "internalType": "address",
          "name": "_destinationContractAddress",
          "type": "address"
        }
      ],
      "name": "executeMultipleOrderToOne",
      "outputs": [],
      "stateMutability": "payable",
      "type": "function"
    },
    {
      "inputs": [
        {
          "internalType": "bytes32",
          "name": "commandId",
          "type": "bytes32"
        },
        {
          "internalType": "string",
          "name": "sourceChain",
          "type": "string"
        },
        {
          "internalType": "string",
          "name": "sourceAddress",
          "type": "string"
        },
        {
          "internalType": "bytes",
          "name": "payload",
          "type": "bytes"
        },
        {
          "internalType": "string",
          "name": "tokenSymbol",
          "type": "string"
        },
        {
          "internalType": "uint256",
          "name": "amount",
          "type": "uint256"
        }
      ],
      "name": "executeWithToken",
      "outputs": [],
      "stateMutability": "nonpayable",
      "type": "function"
    },
    {
      "inputs": [],
      "name": "gateway",
      "outputs": [
        {
          "internalType": "contract IAxelarGateway",
          "name": "",
          "type": "address"
        }
      ],
      "stateMutability": "view",
      "type": "function"
    },
    {
      "inputs": [
        {
          "internalType": "address",
          "name": "_fromToken",
          "type": "address"
        },
        {
          "internalType": "address",
          "name": "_toToken",
          "type": "address"
        }
      ],
      "name": "getCurrentPrice",
      "outputs": [
        {
          "internalType": "int256",
          "name": "",
          "type": "int256"
        }
      ],
      "stateMutability": "view",
      "type": "function"
    },
    {
      "inputs": [],
      "name": "getLatestPriceFeed",
      "outputs": [
        {
          "internalType": "int256",
          "name": "",
          "type": "int256"
        }
      ],
      "stateMutability": "view",
      "type": "function"
    },
    {
      "inputs": [],
      "name": "i_link",
      "outputs": [
        {
          "internalType": "contract LinkTokenInterface",
          "name": "",
          "type": "address"
        }
      ],
      "stateMutability": "view",
      "type": "function"
    },
    {
      "inputs": [],
      "name": "i_registrar",
      "outputs": [
        {
          "internalType": "contract KeeperRegistrarInterface",
          "name": "",
          "type": "address"
        }
      ],
      "stateMutability": "view",
      "type": "function"
    },
    {
      "inputs": [],
      "name": "i_registry",
      "outputs": [
        {
          "internalType": "contract AutomationRegistryInterface",
          "name": "",
          "type": "address"
        }
      ],
      "stateMutability": "view",
      "type": "function"
    },
    {
      "inputs": [],
      "name": "inactiveDepositCounter",
      "outputs": [
        {
          "internalType": "uint256",
          "name": "",
          "type": "uint256"
        }
      ],
      "stateMutability": "view",
      "type": "function"
    },
    {
      "inputs": [],
      "name": "owner",
      "outputs": [
        {
          "internalType": "address",
          "name": "",
          "type": "address"
        }
      ],
      "stateMutability": "view",
      "type": "function"
    },
    {
      "inputs": [
        {
          "internalType": "bytes",
          "name": "performData",
          "type": "bytes"
        }
      ],
      "name": "performUpkeep",
      "outputs": [],
      "stateMutability": "nonpayable",
      "type": "function"
    },
    {
      "inputs": [],
      "name": "renounceOwnership",
      "outputs": [],
      "stateMutability": "nonpayable",
      "type": "function"
    },
    {
      "inputs": [
        {
          "internalType": "string",
          "name": "_tokenSymbol",
          "type": "string"
        }
      ],
      "name": "setCrossAxelarTokenSymbol",
      "outputs": [],
      "stateMutability": "nonpayable",
      "type": "function"
    },
    {
      "inputs": [
        {
          "internalType": "uint256",
          "name": "_connextSlippage",
          "type": "uint256"
        }
      ],
      "name": "setCrossTransferSlippage",
      "outputs": [],
      "stateMutability": "nonpayable",
      "type": "function"
    },
    {
      "inputs": [
        {
          "internalType": "bool",
          "name": "_activated",
          "type": "bool"
        }
      ],
      "name": "setDummyExecutionActivated",
      "outputs": [],
      "stateMutability": "nonpayable",
      "type": "function"
    },
    {
      "inputs": [
        {
          "internalType": "int256",
          "name": "_price",
          "type": "int256"
        }
      ],
      "name": "setDummyExecutionPrice",
      "outputs": [],
      "stateMutability": "nonpayable",
      "type": "function"
    },
    {
      "inputs": [
        {
          "internalType": "address",
          "name": "_routerAddress",
          "type": "address"
        }
      ],
      "name": "setRouterAddress",
      "outputs": [],
      "stateMutability": "nonpayable",
      "type": "function"
    },
    {
      "inputs": [
        {
          "internalType": "uint96",
          "name": "_upkeepFee",
          "type": "uint96"
        }
      ],
      "name": "setUpkeepFee",
      "outputs": [],
      "stateMutability": "nonpayable",
      "type": "function"
    },
    {
      "inputs": [
        {
          "internalType": "address",
          "name": "wethAddress",
          "type": "address"
        }
      ],
      "name": "setWethAddress",
      "outputs": [],
      "stateMutability": "nonpayable",
      "type": "function"
    },
    {
      "inputs": [
        {
          "internalType": "address",
          "name": "nativeAddress",
          "type": "address"
        }
      ],
      "name": "setWrappedNativeTokenAddress",
      "outputs": [],
      "stateMutability": "nonpayable",
      "type": "function"
    },
    {
      "inputs": [],
      "name": "swapRouter",
      "outputs": [
        {
          "internalType": "contract IUniswapV2Router02",
          "name": "",
          "type": "address"
        }
      ],
      "stateMutability": "view",
      "type": "function"
    },
    {
      "inputs": [
        {
          "internalType": "address",
          "name": "newOwner",
          "type": "address"
        }
      ],
      "name": "transferOwnership",
      "outputs": [],
      "stateMutability": "nonpayable",
      "type": "function"
    },
    {
      "inputs": [],
      "name": "upkeepFee",
      "outputs": [
        {
          "internalType": "uint96",
          "name": "",
          "type": "uint96"
        }
      ],
      "stateMutability": "view",
      "type": "function"
    },
    {
      "inputs": [],
      "name": "upkeepGasLimit",
      "outputs": [
        {
          "internalType": "uint32",
          "name": "",
          "type": "uint32"
        }
      ],
      "stateMutability": "view",
      "type": "function"
    },
    {
      "inputs": [
        {
          "internalType": "address",
          "name": "",
          "type": "address"
        },
        {
          "internalType": "uint256",
          "name": "",
          "type": "uint256"
        }
      ],
      "name": "userDeposits",
      "outputs": [
        {
          "internalType": "uint256",
          "name": "",
          "type": "uint256"
        }
      ],
      "stateMutability": "view",
      "type": "function"
    },
    {
      "stateMutability": "payable",
      "type": "receive"
    }
  ],
  "bytecode": "0x61012034620002db576200370c38819003601f8101601f191683016001600160401b03811184821017620002e05783928291604052833961010091829181010312620002db576200005082620002f6565b6200005e60208401620002f6565b604084015190936001600160a01b03918281169190829003620002db5760608101518381168103620002db5760808201518481168103620002db5760a0830151918583168303620002db57620000c560e0620000bd60c08701620002f6565b9501620002f6565b9460009081548860018060a01b03199a338c841617855560405192823391167f8be0079c531659141344cd1fd0a4f28419497f9722a3daafe3b4186f6b6457e08780a316908115620002cc5750608052600454916001928381811c91168015620002c1575b6020821014620002ad57601f811162000263575b509780999a9b819899600c65574d4154494360d01b01600455610bb860055564b1a2bc2ec560b21b8360065416176006556708b79da4000f424060018060401b03196007541617600755620f42406008558460ff19600954161760095580600a5580600b55600c551660a0528982541617905560c05260e0528652168360025416176002551690600354161760035560405161340091826200030c8339608051828181610499015281816114b301528181611a4701528181611fc101528181612c1001528181612d3801528181612e680152612ee6015260a0518281816104f7015281816113860152612da1015260c0518281816108f50152610e4e015260e051828181610e1401528181610f3f01526117e701525181818161157501526119480152f35b60048252601f0160051c7f8a35acfbc15ff81a39ae7d344fd709f28e8600b4aa8c65c6b64bfe7fe36bd19b908101905b818110620002a257506200013e565b828155840162000293565b634e487b7160e01b82526022600452602482fd5b90607f16906200012a565b63e6c4247b60e01b8152600490fd5b600080fd5b634e487b7160e01b600052604160045260246000fd5b51906001600160a01b0382168203620002db5756fe60806040526004361015610018575b361561001657005b005b6000803560e01c806304f2b341146121ae57806308f43333146121585780630c82d1fc14611ff0578063116191b614611fab5780631a98b2e01461199557806323cf8f9e146119775780632a663606146119325780632a8448d3146118df5780633450f1ac1461185657806341cb87fc14611816578063442b1278146117d15780634585e33b1461173d57806345cad2f41461152857806349160658146113ed5780634c286e4a146113b5578063545614cc1461137057806359263611146113555780635f9b6c2c14610a555780636170cd6714610a3457806363d547f0146109f45780636e04ff0d1461097e578063715018a6146109245780637d253aff146108df57806380dc8f841461089c5780638598e2611461087e578063892df7a31461085b5780638da5cb5b14610834578063a93413c314610811578063a96e2423146107d1578063a9ea1f80146107ad578063ad5c464814610784578063b02c43d0146106e1578063b381cf40146106b8578063c31c9c071461068f578063d195a09214610420578063db16a555146103ea578063dbd04d72146102f5578063f2fde38b1461022f578063f639c501146101fc5763fc17c8fa146101dc575061000e565b346101f957806003193601126101f9576020600a54604051908152f35b80fd5b50346101f95760203660031901126101f9576020906004358152600e8252604060018060a01b0391205416604051908152f35b50346101f95760203660031901126101f9576102496122e0565b610251612616565b6001600160a01b039081169081156102a157600054826001600160601b0360a01b821617600055167f8be0079c531659141344cd1fd0a4f28419497f9722a3daafe3b4186f6b6457e0600080a380f35b60405162461bcd60e51b815260206004820152602660248201527f4f776e61626c653a206e6577206f776e657220697320746865207a65726f206160448201526564647265737360d01b6064820152608490fd5b506101403660031901126101f9576004359061030f612287565b61031761229d565b6001600160401b03916064358381116103e657610338903690600401612320565b9290936084358181116103e257610353903690600401612320565b9761035c6122f6565b9160c4359360e4359081116103de576103799036906004016123f1565b9461010435966103876122c9565b988b5b818110610395578c80f35b806103d48f8c8f8f928c8f928f928c8f928f926103c98f929d8f926103d99f826103ce956103c292612b98565b3596612b98565b612ba8565b93612bbc565b61272b565b61038a565b8980fd5b8680fd5b8480fd5b50346101f95760403660031901126101f9576104046122e0565b5061040d612287565b506020610418612712565b604051908152f35b506003196101203682011261068b57610437612287565b6044356001600160401b038111610687576104569036906004016123f1565b6001600160a01b03929091906064358481168103610682576084359260e4358681168091036106825761010435968088168803610682576104f589986104c088847f00000000000000000000000000000000000000000000000000000000000000001697886129d7565b604080516001600160a01b0396871660208201529190951694810194909452600435606080860191909152845260808461237e565b7f00000000000000000000000000000000000000000000000000000000000000001661052082612758565b90803b1561067e57859189916105648a61059261058361057360405198899788968796636316100160e11b885230600489015260e0602489015260e4880190612477565b91868303016044870152612477565b8c8482030160648501528a612477565b8b8382030160848401526124d6565b8b60a48301523360c4830152039160c435905af190811561067357889161065f575b50506105bf90612758565b92823b156103e25761060e95879561062d879361061e6105fe966040519b8c9a8b998a98632d505c2160e21b8a5260a060048b015260a48a0190612477565b90858983030160248a0152612477565b9083878303016044880152612477565b908482030160648501526124d6565b90608483015203925af18015610654576106445750f35b61064d90612350565b6101f95780f35b6040513d84823e3d90fd5b61066890612350565b6103e25786386105b4565b6040513d8a823e3d90fd5b8880fd5b600080fd5b8380fd5b5080fd5b50346101f957806003193601126101f9576001546040516001600160a01b039091168152602090f35b50346101f957806003193601126101f9576003546040516001600160a01b039091168152602090f35b50346101f95760203660031901126101f9576040610140916004358152600d6020522080549060018101549060018060a01b03806002830154169080600384015416600484015460058501549183600687015416936007870154169460ff600960088901549801541697604051998a5260208a015260408901526060880152608087015260a086015260c085015260e08401526101008301521515610120820152f35b50346101f957806003193601126101f9576002546040516001600160a01b039091168152602090f35b50346101f957806003193601126101f957602063ffffffff60075416604051908152f35b50346101f95760203660031901126101f9576107eb6122e0565b6107f3612616565b60018060a01b03166001600160601b0360a01b600254161760025580f35b50346101f95760203660031901126101f95761082b612616565b60043560055580f35b50346101f957806003193601126101f957546040516001600160a01b039091168152602090f35b50346101f95760203660031901126101f957610875612616565b60043560085580f35b50346101f957806003193601126101f9576020600554604051908152f35b50346101f957806003193601126101f9576108db6040516108c7816108c0816124d6565b038261237e565b604051918291602083526020830190612477565b0390f35b50346101f957806003193601126101f9576040517f00000000000000000000000000000000000000000000000000000000000000006001600160a01b03168152602090f35b50346101f957806003193601126101f95761093d612616565b600080546001600160a01b0319811682556001600160a01b03167f8be0079c531659141344cd1fd0a4f28419497f9722a3daafe3b4186f6b6457e08280a380f35b50346101f95760203660031901126101f957600435906001600160401b0382116101f9576109d76109b23660048501612427565b91906109c0838201826127fd565b60806109ca612712565b91015113159236916123ba565b906108db6040519283928352604060208401526040830190612477565b50346101f95760203660031901126101f957610a0e6122e0565b610a16612616565b60018060a01b03166001600160601b0360a01b600354161760035580f35b50346101f957806003193601126101f957602060065460a01c604051908152f35b506101403660031901126101f957610a6b6122e0565b90610a74612287565b610a7c6122b3565b91610a856122f6565b9260e4356001600160401b03811161135157610aa59036906004016123f1565b92610aae6122c9565b93610aba600c5461272b565b9485600c55610acd60443585308b6128e1565b6040519161016083018381106001600160401b038211176111bb5760405286835260018060a01b038916602084015260018060a01b03841660408401526044356060840152606435608084015260018060a01b03851660a084015260018060a01b03881660c084015260c43560e08401526101008301526101043561012083015260018060a01b0316610140820152610c2660405180926020808301528051604083015260018060a01b03602082015116606083015260018060a01b036040820151166080830152606081015160a0830152608081015160c083015260018060a01b0360a08201511660e083015260018060a01b0360c08201511661010083015260e0810151610120830152610bf66101008201516101606101408501526101a0840190612477565b610120820151610160840152610140909101516001600160a01b031661018083015203601f19810183528261237e565b849084918660801c611342575b8060401c611334575b8060201c611326575b8060101c80611319575b5060081c61130f575b8560018381016001600160ff1b03168403016112f9576001838101901b60028101106112f957610c9060026001850160011b0161239f565b92610c9e604051948561237e565b6001818101901b600201808552601f1990610cb89061239f565b013660208601378351156112e357603060208501538351600110156112e357607860218501536001818101811b908101106112f9576001809101811b015b600181116112a0575061125c57610d48602f60405180946e4175746f4c696d69744f726465722d60881b6020830152610d388151809260208686019101612454565b810103600f81018552018361237e565b63ffffffff6007541660065460a01c91604051918260208101106001600160401b036020850111176111bb576020830160405287835260405194856101008101106001600160401b03610100880111176111bb57610100860160405285526040518060408101106001600160401b036040830111176111bb57604081016040526002815261060f60f31b60208201526020860152306040860152606085015230608085015260a084015260c08301528060e08301526040519063095ea7b360e01b825260018060a01b037f000000000000000000000000000000000000000000000000000000000000000016600483015260248201526020816044818860018060a01b037f0000000000000000000000000000000000000000000000000000000000000000165af1801561125157611222575b50602060405180809363022de76960e21b82528360048301526001600160601b0360e0610f30610eb984516101006024880152610124870190612477565b610f1b610ed7898701519260231993848a83030160448b0152612477565b60408701516001600160a01b0390811660648a0152606088015163ffffffff1660848a015260808801511660a489015260a0870151888203840160c48a0152612477565b9060c0860151908783030160e4880152612477565b920151166101048301520381877f00000000000000000000000000000000000000000000000000000000000000006001600160a01b03165af19081156112175784916111e5575b50848452600e6020908152604080862080546001600160a01b031916331790556001600160a01b0389168652600f9091528420805490680100000000000000008210156111d15781610fcf916001899401815561240f565b819291549060031b600019811b9283911b16911916179055610ff2600a5461272b565b600a5560405193846101408101106001600160401b03610140870111176111bb577fc24301380a82b38d7f98155ac5bcd248c569b3b83851f84b6b532f42a85b81cb966101209460099460409461014089018652898952602089015260018060a01b038b168589015260018060a01b03166060880152604435608088015260643560a088015260018060a01b031660c087015260018060a01b031660e086015260c435610100860152600184860152858152600d6020522083518155602084015160018201556002810160018060a01b036040860151166001600160601b0360a01b8254161790556003810160018060a01b036060860151166001600160601b0360a01b8254161790556080840151600482015560a084015160058201556006810160018060a01b0360c0860151166001600160601b0360a01b8254161790556007810160018060a01b0360e0860151166001600160601b0360a01b825416179055610100840151600882015501910151151560ff801983541691161790556e11115413d4d25517d0d49150551151608a1b6040515260008051602061338b83398151915260408051946001865242602087015260018060a01b031694a4602060405160018152f35b634e487b7160e01b600052604160045260246000fd5b634e487b7160e01b86526041600452602486fd5b90506020813d60201161120f575b816112006020938361237e565b81010312610687575138610f77565b3d91506111f3565b6040513d86823e3d90fd5b6112439060203d60201161124a575b61123b818361237e565b8101906125dd565b5038610e7b565b503d611231565b6040513d87823e3d90fd5b606460405162461bcd60e51b815260206004820152602060248201527f537472696e67733a20686578206c656e67746820696e73756666696369656e746044820152fd5b906010600f821610156112e3576112de906f181899199a1a9b1b9c1cb0b131b232b360811b600f82161a6112d48487612747565b5360041c9161273a565b610cf6565b634e487b7160e01b600052603260045260246000fd5b634e487b7160e01b600052601160045260246000fd5b9060010190610c58565b6002915092019138610c4f565b60049060201c920191610c45565b60089060401c920191610c3c565b5060109150608086901c610c33565b8280fd5b50346101f957806003193601126101f9576020610418612685565b50346101f957806003193601126101f9576040517f00000000000000000000000000000000000000000000000000000000000000006001600160a01b03168152602090f35b50346101f95760203660031901126101f95760043580151580910361068b576113dc612616565b60ff80196009541691161760095580f35b50346101f95760031960803682011261068b576001600160401b0360243581811161068757611420903690600401612427565b60443583811161152457611438903690600401612427565b936064359081116103e2576114979560209561146561145e6114a6943690600401612427565b36916123ba565b878151910120936040519889978897635f6970c360e01b895260043560048a0152608060248a015260848901916125f5565b928684030160448701526125f5565b60648301919091520381857f00000000000000000000000000000000000000000000000000000000000000006001600160a01b03165af1908115610654578291611506575b50156114f45780f35b604051631403112d60e21b8152600490fd5b61151e915060203d811161124a5761123b818361237e565b386114eb565b8580fd5b50346101f957602090816003193601126101f957600435808252600e835260408220546001600160a01b0390811633036116ee57818352600d845260ff600960408520015416156116a9577f000000000000000000000000000000000000000000000000000000000000000016818352600d84526001604084200154813b15610687578391602483926040519485938492636402401160e11b845260048401525af1801561169e5761166b575b50807f683e761c38386db53faf9d762ce9cd5f98de40eacd57ee5bc9a71609f6901f4d918352600d84526009604084200160ff198154169055611619600b5461272b565b600b55611627600a5461273a565b600a557011115413d4d25517d0d05390d153131151607a1b60405152604051928352428484015260008051602061338b83398151915260403394a460405160018152f35b916116977f683e761c38386db53faf9d762ce9cd5f98de40eacd57ee5bc9a71609f6901f4d9293612350565b91906115d5565b6040513d85823e3d90fd5b60405162461bcd60e51b815260048101859052601b60248201527f4465706f73697420697320616c726561647920696e61637469766500000000006044820152606490fd5b60405162461bcd60e51b815260048101859052602160248201527f4f6e6c79204465706f7369746f722063616e2063616e63656c206465706f73696044820152601d60fa1b6064820152608490fd5b50346101f95760203660031901126101f9576004356001600160401b03811161068b5761177c6117746117ce923690600401612427565b8101906127fd565b80519060018060a01b038060208301511681604084015116606084015160808501518460a087015116918560c0880151169360e088015195610100890151976101406101208b01519a01511699612b54565b80f35b50346101f957806003193601126101f9576040517f00000000000000000000000000000000000000000000000000000000000000006001600160a01b03168152602090f35b50346101f95760203660031901126101f9576118306122e0565b611838612616565b60018060a01b03166001600160601b0360a01b600154161760015580f35b506101603660031901126101f95761186c612287565b61187461229d565b9061187d6122f6565b916001600160a01b039160c43590838216820361152457610104356001600160401b0381116103e2576118b49036906004016123f1565b916101443594851685036103e2576117ce95610124359460e435936084359160643591600435612b54565b50346101f95760203660031901126101f9576004356001600160601b038116810361068b5761190c612616565b600680546001600160a01b031660a09290921b6001600160a01b03191691909117905580f35b50346101f957806003193601126101f9576040517f00000000000000000000000000000000000000000000000000000000000000006001600160a01b03168152602090f35b50346101f957806003193601126101f9576020600b54604051908152f35b50346101f95760c03660031901126101f9576001600160401b03602435818111611351576119c7903690600401612427565b91906044358281116103e6576119e1903690600401612427565b6064949194358481116103e2576119fc903690600401612427565b9094608435908111611fa757611a19611a93913690600401612427565b9560a43595611abc611a2c36878c6123ba565b9384519960209a8b8097012091611aa560018060a01b039e8f7f0000000000000000000000000000000000000000000000000000000000000000169b6040519a8b998a99631876eed960e01b8b5260043560048c015260c060248c015260c48b01916125f5565b8881036003190160448a0152916125f5565b9260648601526003198584030160848601526125f5565b8760a483015203818b875af1908115610673578891611f8a575b50156114f457846060918101031261152457611af18461230c565b948080611aff86880161230c565b971696168460405180946349ad89fb60e11b82528260048301528180611b27602482016124d6565b03915afa928315610673578893611f5b575b508160035416928883821694808614600014611cf55750505083611cb057611bbb88938593859360405192611b6d84612363565b600284526040368b860137611b8184612a38565b52611b8b83612a45565b526001541690604051968780948193637ff36ab560e01b8352876004840152608060248401526084830190612ad0565b8c604483015242606483015203925af1928315610654578293611c8c575b5080611be484612a38565b5110611c55575b50506040807f6b7223dc49faa115e4fb6c4feb3911a17a6b88cb59c2386a83742d8d66ca5e5a94611c2a60008051602061338b83398151915294612a45565b505b6e13d491115497d0d3d3541311551151608a1b825152815194600186524290860152013592a480f35b8180611c6c8193611c6587612a38565b5190612b0d565b818115611c83575b3090f115611217578438611beb565b506108fc611c74565b611ca99193503d8084833e611ca1818361237e565b810190612a55565b9138611bd9565b60405162461bcd60e51b815260048101869052601d60248201527f416d6f756e74206e6f7420657175616c20746f206d73672e76616c75650000006044820152606490fd5b8398939796979591929514600014611e7f57958495968198611d20838798611d7398600154166129d7565b60405191611d2d83612363565b600283526040368b850137611d4183612a38565b52611d4b82612a45565b528983876001541692604051978895869485936318cbafe560e01b8552429260048601612b1a565b03925af1918215610673578892611e63575b5082600354169188611d9682612a45565b5193803b1561068b57600460405180968193630d0e30db60e41b83525af1908115611e58577f6b7223dc49faa115e4fb6c4feb3911a17a6b88cb59c2386a83742d8d66ca5e5a9760008051602061338b833981519152966040968796611e1595611e49575b5082611e0685612a38565b5110611e1b575b505050612a45565b50611c2c565b611e4192611e3083611e399360015416612995565b611c6585612a38565b9030306128e1565b388080611e0d565b611e5290612350565b38611dfb565b6040513d8b823e3d90fd5b611e789192503d808a833e611ca1818361237e565b9038611d85565b611ee797611e9588878760019b9a9b54166129d7565b60405191611ea283612363565b600283526040368a850137611eb683612a38565b52611ec082612a45565b5283600154168983604051809b819582946338ed173960e01b845242918d60048601612b1a565b03925af1958615610673577f6b7223dc49faa115e4fb6c4feb3911a17a6b88cb59c2386a83742d8d66ca5e5a9660008051602061338b833981519152956040958695611e15948d94611f3e575082611e0685612a38565b611f549194508d3d8091833e611ca1818361237e565b9238611dfb565b611f7c919350853d8711611f83575b611f74818361237e565b810190612a19565b9138611b39565b503d611f6a565b611fa19150853d871161124a5761123b818361237e565b38611ad6565b8780fd5b50346101f957806003193601126101f9576040517f00000000000000000000000000000000000000000000000000000000000000006001600160a01b03168152602090f35b50346101f957602090816003193601126101f9576001600160401b03600435818111611351576120249036906004016123f1565b9261202d612616565b83519182116121445761204160045461249c565b601f81116120f4575b5080601f83116001146120855750829382939261207a575b50508160011b916000199060031b1c19161760045580f35b015190503880612062565b60048452601f198316946000805160206133ab833981519152929185905b8782106120dc5750508360019596106120c3575b505050811b0160045580f35b015160001960f88460031b161c191690553880806120b7565b806001859682949686015181550195019301906120a3565b600484526000805160206133ab833981519152601f840160051c81019183851061213a575b601f0160051c01905b81811061212f575061204a565b848155600101612122565b9091508190612119565b634e487b7160e01b83526041600452602483fd5b50346101f95760403660031901126101f9576121726122e0565b6001600160a01b03168152600f60205260408120805460243592908310156101f95760206121a0848461240f565b90546040519160031b1c8152f35b506101403660031901126101f957600435906121c8612287565b6121d061229d565b6001600160401b03916064358381116103e6576121f1903690600401612320565b9290936121fc6122b3565b9660a435828111611fa757612215903690600401612320565b989060c4359360e4359081116103de576122339036906004016123f1565b9461010435966122416122c9565b988b5b81811061224f578c80f35b806103d48f8c8f8f928c8f928f928c8f928f926103c98f929d8f926122829f8261227c956103c292612b98565b94612bbc565b612244565b602435906001600160a01b038216820361068257565b604435906001600160a01b038216820361068257565b608435906001600160a01b038216820361068257565b61012435906001600160a01b038216820361068257565b600435906001600160a01b038216820361068257565b60a435906001600160a01b038216820361068257565b35906001600160a01b038216820361068257565b9181601f84011215610682578235916001600160401b038311610682576020808501948460051b01011161068257565b6001600160401b0381116111bb57604052565b606081019081106001600160401b038211176111bb57604052565b90601f801991011681019081106001600160401b038211176111bb57604052565b6001600160401b0381116111bb57601f01601f191660200190565b9291926123c68261239f565b916123d4604051938461237e565b829481845281830111610682578281602093846000960137010152565b9080601f830112156106825781602061240c933591016123ba565b90565b80548210156112e35760005260206000200190600090565b9181601f84011215610682578235916001600160401b038311610682576020838186019501011161068257565b60005b8381106124675750506000910152565b8181015183820152602001612457565b9060209161249081518092818552858086019101612454565b601f01601f1916010190565b90600182811c921680156124cc575b60208310146124b657565b634e487b7160e01b600052602260045260246000fd5b91607f16916124ab565b600454600092916124e68261249c565b8082529160019081811690811561254b575060011461250457505050565b9192935060046000526000805160206133ab833981519152916000925b84841061253357505060209250010190565b80546020858501810191909152909301928101612521565b915050602093945060ff929192191683830152151560051b010190565b600454600092916125788261249c565b8082529160019081811690811561254b575060011461259657505050565b9192935060046000526000805160206133ab833981519152916000925b8484106125c557505060209250010190565b805460208585018101919091529093019281016125b3565b90816020910312610682575180151581036106825790565b908060209392818452848401376000828201840152601f01601f1916010190565b6000546001600160a01b0316330361262a57565b606460405162461bcd60e51b815260206004820152602060248201527f4f776e61626c653a2063616c6c6572206973206e6f7420746865206f776e65726044820152fd5b519069ffffffffffffffffffff8216820361068257565b600654604051633fabe5a360e21b81529060a090829060049082906001600160a01b03165afa908115612706576000916126bd575090565b9060a0823d82116126fe575b816126d660a0938361237e565b810103126101f957506126e88161266e565b506126fa60806020830151920161266e565b5090565b3d91506126c9565b6040513d6000823e3d90fd5b60095460ff16156127235760085490565b61240c612685565b60001981146112f95760010190565b80156112f9576000190190565b9081518110156112e3570160200190565b6040519061276582612363565b602a82526020820160403682378251156112e3576030905381516001908110156112e357607860218401536029905b8082116127a457505061125c5790565b9091600f81169060108210156127e8576127e2916f181899199a1a9b1b9c1cb0b131b232b360811b901a6127d88587612747565b5360041c9261273a565b90612794565b60246000634e487b7160e01b81526032600452fd5b906020828203126106825781356001600160401b039283821161068257019061016092838383031261068257604051938401848110828211176111bb576040528235845261284d6020840161230c565b602085015261285e6040840161230c565b6040850152606083013560608501526080830135608085015261288360a0840161230c565b60a085015261289460c0840161230c565b60c085015260e083013560e08501526101009182840135918211610682576128bd9184016123f1565b9083015261012080820135908301526128da61014080920161230c565b9082015290565b6001600160a01b03908082163003612954575060405163a9059cbb60e01b81526001600160a01b0390921660048301526024820193909352916020918391829060009082604481015b0393165af180156127065761293d575b50565b61293a9060203d811161124a5761123b818361237e565b6040516323b872dd60e01b81526001600160a01b0391821660048201529216602483015260448201939093529160209183918290600090826064810161292a565b60405163095ea7b360e01b81526001600160a01b039182166004820152600060248201819052909260209284926044928492165af180156127065761293d5750565b60405163095ea7b360e01b81526001600160a01b039182166004820152602481019390935260209183916044918391600091165af180156127065761293d5750565b9081602091031261068257516001600160a01b03811681036106825790565b8051156112e35760200190565b8051600110156112e35760400190565b9060209081838203126106825782516001600160401b0393848211610682570181601f820112156106825780519384116111bb578360051b9060405194612a9e8584018761237e565b85528380860192820101928311610682578301905b828210612ac1575050505090565b81518152908301908301612ab3565b90815180825260208080930193019160005b828110612af0575050505090565b83516001600160a01b031685529381019392810192600101612ae2565b919082039182116112f957565b90608092612b40919695949683526000602084015260a0604084015260a0830190612ad0565b6001600160a01b0390951660608201520152565b9a999897969594939a612b65612712565b8c8112612b7a5750612b789a9b50612bbc565b565b6044908d604051916318050f9b60e11b835260048301526024820152fd5b91908110156112e35760051b0190565b356001600160a01b03811681036106825790565b979298919098969495966000978115613345576001600160a01b03868116908916146132f457156132af57604051946349ad89fb60e11b86526020600487015260208680612c0c60248201612568565b03817f00000000000000000000000000000000000000000000000000000000000000006001600160a01b03165afa958615611e585790899291839761328e575b506003546001600160a01b0390811690821681036130445750908092503410612fff5788612ced839260405190612c8282612363565b6002825260403660208401376001600160a01b0316612ca082612a38565b52612caa81612a45565b6001600160a01b038a8116909152600154604051637ff36ab560e01b81526004810186905260806024820152968794919092169284929183916084830190612ad0565b30604483015242606483015203925af1918215611e58579089918293612fe3575b5080612d1984612a38565b5110612fb3575b505090612d65612d32612d9393612a45565b5180965b7f00000000000000000000000000000000000000000000000000000000000000006001600160a01b03166129d7565b604080516001600160a01b03928316602082015297909116908701526060808701899052865260808661237e565b6001600160a01b03908116907f000000000000000000000000000000000000000000000000000000000000000016612dca82612758565b92813b15611fa757612e218792612e0e8a9389612e40612e3160405198899788968795636316100160e11b875230600488015260e0602488015260e4870190612477565b6003199d8e878303016044880152612477565b908c858303016064860152612477565b8a838203016084840152612568565b8a60a48301523360c483015203925af18015612fa857612f93575b50612e6590612758565b937f00000000000000000000000000000000000000000000000000000000000000006001600160a01b03163b156115245791612ed9869492612eca6105fe9561060e604051998a988998632d505c2160e21b8a5260a060048b015260a48a0190612477565b90848203016064850152612568565b60848301919091520381837f00000000000000000000000000000000000000000000000000000000000000006001600160a01b03165af1801561065457612f7f575b50507fa03b3afdf6c25ca0100280e0c454abe76018f8cd56974bfc325826c723c96c1b906d13d491115497d1561150d555115160921b6040515260008051602061338b83398151915260408051946001865242602087015260018060a01b031694a4565b612f898291612350565b6101f95780612f1b565b95612fa1612e659297612350565b9590612e5b565b6040513d89823e3d90fd5b8180612fc38193611c6587612a38565b818115612fda575b3090f115612fa8578738612d20565b506108fc612fcb565b612ff89193503d8084833e611ca1818361237e565b9138612d0e565b60405162461bcd60e51b815260206004820152601d60248201527f416d6f756e74206e6f7420657175616c20746f206d73672e76616c75650000006044820152606490fd5b83906001600160a01b0389169081036131c6576130d890613070858560018060a01b03600154166129d7565b6040519061307d82612363565b6002825260403660208401376001600160a01b03851661309c83612a38565b526130a682612a45565b526001546040516318cbafe560e01b81529687936001600160a01b039092169284928391429030908b60048601612b1a565b03925af19283156131bb578a9361319f575b506003546001600160a01b031661310084612a45565b5190803b1561319b578b90600460405180948193630d0e30db60e41b83525af18015613190579261315392612d93969592612d6595613181575b508161314584612a38565b511061315b575b5050612a45565b518096612d36565b60015461317a92611e3991611e309084906001600160a01b0316612995565b388061314c565b61318a90612350565b3861313a565b6040513d8d823e3d90fd5b8b80fd5b6131b49193503d808c833e611ca1818361237e565b91386130ea565b6040513d8c823e3d90fd5b613247906131df858560018060a01b03600154166129d7565b604051906131ec82612363565b6002825260403660208401376001600160a01b03851661320b83612a38565b5261321582612a45565b526001546040516338ed173960e01b81529687936001600160a01b039092169284928391429030908b60048601612b1a565b03925af19283156131bb5792612d659261315392612d9396958d9361327157508161314584612a38565b6132879193508d3d8091833e611ca1818361237e565b913861313a565b6132a891975060203d602011611f8357611f74818361237e565b9538612c4c565b60405162461bcd60e51b815260206004820152601f60248201527f546f20636861696e206d7573742062652067726561746572207468616e2030006044820152606490fd5b60405162461bcd60e51b8152602060048201526024808201527f46726f6d20616e6420546f20746f6b656e73206d7573742062652064696666656044820152631c995b9d60e21b6064820152608490fd5b60405162461bcd60e51b815260206004820152601d60248201527f416d6f756e74206d7573742062652067726561746572207468616e20300000006044820152606490fdfea5a5bd98656058fc95e51c484e0ff0e44860d2f24b8b3be493e84bf30af1efb78a35acfbc15ff81a39ae7d344fd709f28e8600b4aa8c65c6b64bfe7fe36bd19ba2646970667358221220aedd2f5ffed8c636b2a95a9c48e6152d6b51382599b26affe9f968adac04851664736f6c63430008110033",
  "linkReferences": {},
  "deployedLinkReferences": {}
}